:020000040000FA
:060000000A128A11FC2F18
:100F3E000030F0000330F1000130F0020030031CED
:100F4E00F103F10270087104031DAE2FAF2FA32F12
:100F5E0008000730831603139F0085018801FE30B9
:100F6E00831203138500C03088000A128A119F274E
:100F7E000A128A11FD30831203138500F93088009E
:100F8E000A128A119F270A128A11FB308312031349
:100F9E008500A43088000A128A119F270A128A112E
:100FAE00F730831203138500B03088000A128A11BD
:100FBE009F270A128A11EF3083120313850099308E
:100FCE0088000A128A119F270A128A11DF308312B3
:100FDE0003138500923088000A128A119F270A1285
:100FEE008A11B62F0A128A11002883010A128A1159
:020FFE00B02F12
:02400E00323F3F
:00000001FF
